{
  "_format": "hh-sol-artifact-1",
  "contractName": "AgentRegistry",
  "sourceName": "contracts/AgentRegistry.sol",
  "abi": [
    {
      "inputs": [],
      "stateMutability": "nonpayable",
      "type": "constructor"
    },
    {
      "inputs": [],
      "name": "ERC721EnumerableForbiddenBatchMint",
      "type": "error"
    },
    {
      "inputs": [
        {
          "internalType": "address",
          "name": "sender",
          "type": "address"
        },
        {
          "internalType": "uint256",
          "name": "tokenId",
          "type": "uint256"
        },
        {
          "internalType": "address",
          "name": "owner",
          "type": "address"
        }
      ],
      "name": "ERC721IncorrectOwner",
      "type": "error"
    },
    {
      "inputs": [
        {
          "internalType": "address",
          "name": "operator",
          "type": "address"
        },
        {
          "internalType": "uint256",
          "name": "tokenId",
          "type": "uint256"
        }
      ],
      "name": "ERC721InsufficientApproval",
      "type": "error"
    },
    {
      "inputs": [
        {
          "internalType": "address",
          "name": "approver",
          "type": "address"
        }
      ],
      "name": "ERC721InvalidApprover",
      "type": "error"
    },
    {
      "inputs": [
        {
          "internalType": "address",
          "name": "operator",
          "type": "address"
        }
      ],
      "name": "ERC721InvalidOperator",
      "type": "error"
    },
    {
      "inputs": [
        {
          "internalType": "address",
          "name": "owner",
          "type": "address"
        }
      ],
      "name": "ERC721InvalidOwner",
      "type": "error"
    },
    {
      "inputs": [
        {
          "internalType": "address",
          "name": "receiver",
          "type": "address"
        }
      ],
      "name": "ERC721InvalidReceiver",
      "type": "error"
    },
    {
      "inputs": [
        {
          "internalType": "address",
          "name": "sender",
          "type": "address"
        }
      ],
      "name": "ERC721InvalidSender",
      "type": "error"
    },
    {
      "inputs": [
        {
          "internalType": "uint256",
          "name": "tokenId",
          "type": "uint256"
        }
      ],
      "name": "ERC721NonexistentToken",
      "type": "error"
    },
    {
      "inputs": [
        {
          "internalType": "address",
          "name": "owner",
          "type": "address"
        },
        {
          "internalType": "uint256",
          "name": "index",
          "type": "uint256"
        }
      ],
      "name": "ERC721OutOfBoundsIndex",
      "type": "error"
    },
    {
      "inputs": [
        {
          "internalType": "address",
          "name": "owner",
          "type": "address"
        }
      ],
      "name": "OwnableInvalidOwner",
      "type": "error"
    },
    {
      "inputs": [
        {
          "internalType": "address",
          "name": "account",
          "type": "address"
        }
      ],
      "name": "OwnableUnauthorizedAccount",
      "type": "error"
    },
    {
      "anonymous": false,
      "inputs": [
        {
          "indexed": true,
          "internalType": "uint256",
          "name": "tokenId",
          "type": "uint256"
        },
        {
          "indexed": true,
          "internalType": "address",
          "name": "owner",
          "type": "address"
        },
        {
          "indexed": false,
          "internalType": "address",
          "name": "agentContract",
          "type": "address"
        },
        {
          "indexed": false,
          "internalType": "string",
          "name": "name",
          "type": "string"
        },
        {
          "indexed": false,
          "internalType": "enum Types.StrategyType",
          "name": "strategyType",
          "type": "uint8"
        },
        {
          "indexed": false,
          "internalType": "uint256",
          "name": "timestamp",
          "type": "uint256"
        }
      ],
      "name": "AgentDeployed",
      "type": "event"
    },
    {
      "anonymous": false,
      "inputs": [
        {
          "indexed": true,
          "internalType": "uint256",
          "name": "tokenId",
          "type": "uint256"
        },
        {
          "indexed": false,
          "internalType": "bool",
          "name": "isActive",
          "type": "bool"
        }
      ],
      "name": "AgentStatusChanged",
      "type": "event"
    },
    {
      "anonymous": false,
      "inputs": [
        {
          "indexed": true,
          "internalType": "address",
          "name": "owner",
          "type": "address"
        },
        {
          "indexed": true,
          "internalType": "address",
          "name": "approved",
          "type": "address"
        },
        {
          "indexed": true,
          "internalType": "uint256",
          "name": "tokenId",
          "type": "uint256"
        }
      ],
      "name": "Approval",
      "type": "event"
    },
    {
      "anonymous": false,
      "inputs": [
        {
          "indexed": true,
          "internalType": "address",
          "name": "owner",
          "type": "address"
        },
        {
          "indexed": true,
          "internalType": "address",
          "name": "operator",
          "type": "address"
        },
        {
          "indexed": false,
          "internalType": "bool",
          "name": "approved",
          "type": "bool"
        }
      ],
      "name": "ApprovalForAll",
      "type": "event"
    },
    {
      "anonymous": false,
      "inputs": [
        {
          "indexed": false,
          "internalType": "uint256",
          "name": "newFee",
          "type": "uint256"
        }
      ],
      "name": "DeploymentFeeUpdated",
      "type": "event"
    },
    {
      "anonymous": false,
      "inputs": [
        {
          "indexed": false,
          "internalType": "uint256",
          "name": "newMax",
          "type": "uint256"
        }
      ],
      "name": "MaxAgentsPerUserUpdated",
      "type": "event"
    },
    {
      "anonymous": false,
      "inputs": [
        {
          "indexed": true,
          "internalType": "address",
          "name": "previousOwner",
          "type": "address"
        },
        {
          "indexed": true,
          "internalType": "address",
          "name": "newOwner",
          "type": "address"
        }
      ],
      "name": "OwnershipTransferred",
      "type": "event"
    },
    {
      "anonymous": false,
      "inputs": [
        {
          "indexed": true,
          "internalType": "address",
          "name": "from",
          "type": "address"
        },
        {
          "indexed": true,
          "internalType": "address",
          "name": "to",
          "type": "address"
        },
        {
          "indexed": true,
          "internalType": "uint256",
          "name": "tokenId",
          "type": "uint256"
        }
      ],
      "name": "Transfer",
      "type": "event"
    },
    {
      "inputs": [
        {
          "internalType": "uint256",
          "name": "",
          "type": "uint256"
        }
      ],
      "name": "agentContracts",
      "outputs": [
        {
          "internalType": "address",
          "name": "",
          "type": "address"
        }
      ],
      "stateMutability": "view",
      "type": "function"
    },
    {
      "inputs": [
        {
          "internalType": "uint256",
          "name": "",
          "type": "uint256"
        }
      ],
      "name": "agentMetadata",
      "outputs": [
        {
          "internalType": "string",
          "name": "name",
          "type": "string"
        },
        {
          "internalType": "enum Types.StrategyType",
          "name": "strategyType",
          "type": "uint8"
        },
        {
          "internalType": "string",
          "name": "tokenPair",
          "type": "string"
        },
        {
          "internalType": "string",
          "name": "trigger",
          "type": "string"
        },
        {
          "internalType": "uint256",
          "name": "positionSize",
          "type": "uint256"
        },
        {
          "internalType": "uint256",
          "name": "stopLossPct",
          "type": "uint256"
        },
        {
          "internalType": "bool",
          "name": "isActive",
          "type": "bool"
        },
        {
          "internalType": "uint256",
          "name": "createdAt",
          "type": "uint256"
        },
        {
          "internalType": "address",
          "name": "agentContract",
          "type": "address"
        }
      ],
      "stateMutability": "view",
      "type": "function"
    },
    {
      "inputs": [
        {
          "internalType": "address",
          "name": "to",
          "type": "address"
        },
        {
          "internalType": "uint256",
          "name": "tokenId",
          "type": "uint256"
        }
      ],
      "name": "approve",
      "outputs": [],
      "stateMutability": "nonpayable",
      "type": "function"
    },
    {
      "inputs": [
        {
          "internalType": "address",
          "name": "owner",
          "type": "address"
        }
      ],
      "name": "balanceOf",
      "outputs": [
        {
          "internalType": "uint256",
          "name": "",
          "type": "uint256"
        }
      ],
      "stateMutability": "view",
      "type": "function"
    },
    {
      "inputs": [
        {
          "internalType": "string",
          "name": "name",
          "type": "string"
        },
        {
          "internalType": "enum Types.StrategyType",
          "name": "strategyType",
          "type": "uint8"
        },
        {
          "internalType": "string",
          "name": "tokenPair",
          "type": "string"
        },
        {
          "internalType": "string",
          "name": "trigger",
          "type": "string"
        },
        {
          "internalType": "uint256",
          "name": "positionSize",
          "type": "uint256"
        },
        {
          "internalType": "uint256",
          "name": "stopLossPct",
          "type": "uint256"
        },
        {
          "internalType": "string",
          "name": "strategyGraphJSON",
          "type": "string"
        }
      ],
      "name": "deployAgent",
      "outputs": [
        {
          "internalType": "uint256",
          "name": "tokenId",
          "type": "uint256"
        },
        {
          "internalType": "address",
          "name": "agentContract",
          "type": "address"
        }
      ],
      "stateMutability": "payable",
      "type": "function"
    },
    {
      "inputs": [],
      "name": "deploymentFee",
      "outputs": [
        {
          "internalType": "uint256",
          "name": "",
          "type": "uint256"
        }
      ],
      "stateMutability": "view",
      "type": "function"
    },
    {
      "inputs": [
        {
          "internalType": "uint256",
          "name": "tokenId",
          "type": "uint256"
        }
      ],
      "name": "getAgentInfo",
      "outputs": [
        {
          "components": [
            {
              "internalType": "string",
              "name": "name",
              "type": "string"
            },
            {
              "internalType": "enum Types.StrategyType",
              "name": "strategyType",
              "type": "uint8"
            },
            {
              "internalType": "string",
              "name": "tokenPair",
              "type": "string"
            },
            {
              "internalType": "string",
              "name": "trigger",
              "type": "string"
            },
            {
              "internalType": "uint256",
              "name": "positionSize",
              "type": "uint256"
            },
            {
              "internalType": "uint256",
              "name": "stopLossPct",
              "type": "uint256"
            },
            {
              "internalType": "bool",
              "name": "isActive",
              "type": "bool"
            },
            {
              "internalType": "uint256",
              "name": "createdAt",
              "type": "uint256"
            },
            {
              "internalType": "address",
              "name": "agentContract",
              "type": "address"
            }
          ],
          "internalType": "struct AgentRegistry.AgentMetadata",
          "name": "",
          "type": "tuple"
        }
      ],
      "stateMutability": "view",
      "type": "function"
    },
    {
      "inputs": [
        {
          "internalType": "uint256",
          "name": "tokenId",
          "type": "uint256"
        }
      ],
      "name": "getApproved",
      "outputs": [
        {
          "internalType": "address",
          "name": "",
          "type": "address"
        }
      ],
      "stateMutability": "view",
      "type": "function"
    },
    {
      "inputs": [
        {
          "internalType": "address",
          "name": "user",
          "type": "address"
        }
      ],
      "name": "getUserAgents",
      "outputs": [
        {
          "internalType": "uint256[]",
          "name": "",
          "type": "uint256[]"
        }
      ],
      "stateMutability": "view",
      "type": "function"
    },
    {
      "inputs": [
        {
          "internalType": "address",
          "name": "owner",
          "type": "address"
        },
        {
          "internalType": "address",
          "name": "operator",
          "type": "address"
        }
      ],
      "name": "isApprovedForAll",
      "outputs": [
        {
          "internalType": "bool",
          "name": "",
          "type": "bool"
        }
      ],
      "stateMutability": "view",
      "type": "function"
    },
    {
      "inputs": [],
      "name": "maxAgentsPerUser",
      "outputs": [
        {
          "internalType": "uint256",
          "name": "",
          "type": "uint256"
        }
      ],
      "stateMutability": "view",
      "type": "function"
    },
    {
      "inputs": [],
      "name": "name",
      "outputs": [
        {
          "internalType": "string",
          "name": "",
          "type": "string"
        }
      ],
      "stateMutability": "view",
      "type": "function"
    },
    {
      "inputs": [],
      "name": "owner",
      "outputs": [
        {
          "internalType": "address",
          "name": "",
          "type": "address"
        }
      ],
      "stateMutability": "view",
      "type": "function"
    },
    {
      "inputs": [
        {
          "internalType": "uint256",
          "name": "tokenId",
          "type": "uint256"
        }
      ],
      "name": "ownerOf",
      "outputs": [
        {
          "internalType": "address",
          "name": "",
          "type": "address"
        }
      ],
      "stateMutability": "view",
      "type": "function"
    },
    {
      "inputs": [],
      "name": "renounceOwnership",
      "outputs": [],
      "stateMutability": "nonpayable",
      "type": "function"
    },
    {
      "inputs": [
        {
          "internalType": "address",
          "name": "from",
          "type": "address"
        },
        {
          "internalType": "address",
          "name": "to",
          "type": "address"
        },
        {
          "internalType": "uint256",
          "name": "tokenId",
          "type": "uint256"
        }
      ],
      "name": "safeTransferFrom",
      "outputs": [],
      "stateMutability": "nonpayable",
      "type": "function"
    },
    {
      "inputs": [
        {
          "internalType": "address",
          "name": "from",
          "type": "address"
        },
        {
          "internalType": "address",
          "name": "to",
          "type": "address"
        },
        {
          "internalType": "uint256",
          "name": "tokenId",
          "type": "uint256"
        },
        {
          "internalType": "bytes",
          "name": "data",
          "type": "bytes"
        }
      ],
      "name": "safeTransferFrom",
      "outputs": [],
      "stateMutability": "nonpayable",
      "type": "function"
    },
    {
      "inputs": [
        {
          "internalType": "address",
          "name": "operator",
          "type": "address"
        },
        {
          "internalType": "bool",
          "name": "approved",
          "type": "bool"
        }
      ],
      "name": "setApprovalForAll",
      "outputs": [],
      "stateMutability": "nonpayable",
      "type": "function"
    },
    {
      "inputs": [
        {
          "internalType": "uint256",
          "name": "newFee",
          "type": "uint256"
        }
      ],
      "name": "setDeploymentFee",
      "outputs": [],
      "stateMutability": "nonpayable",
      "type": "function"
    },
    {
      "inputs": [
        {
          "internalType": "uint256",
          "name": "newMax",
          "type": "uint256"
        }
      ],
      "name": "setMaxAgentsPerUser",
      "outputs": [],
      "stateMutability": "nonpayable",
      "type": "function"
    },
    {
      "inputs": [
        {
          "internalType": "bytes4",
          "name": "interfaceId",
          "type": "bytes4"
        }
      ],
      "name": "supportsInterface",
      "outputs": [
        {
          "internalType": "bool",
          "name": "",
          "type": "bool"
        }
      ],
      "stateMutability": "view",
      "type": "function"
    },
    {
      "inputs": [],
      "name": "symbol",
      "outputs": [
        {
          "internalType": "string",
          "name": "",
          "type": "string"
        }
      ],
      "stateMutability": "view",
      "type": "function"
    },
    {
      "inputs": [
        {
          "internalType": "uint256",
          "name": "tokenId",
          "type": "uint256"
        }
      ],
      "name": "toggleAgentStatus",
      "outputs": [],
      "stateMutability": "nonpayable",
      "type": "function"
    },
    {
      "inputs": [
        {
          "internalType": "uint256",
          "name": "index",
          "type": "uint256"
        }
      ],
      "name": "tokenByIndex",
      "outputs": [
        {
          "internalType": "uint256",
          "name": "",
          "type": "uint256"
        }
      ],
      "stateMutability": "view",
      "type": "function"
    },
    {
      "inputs": [
        {
          "internalType": "address",
          "name": "owner",
          "type": "address"
        },
        {
          "internalType": "uint256",
          "name": "index",
          "type": "uint256"
        }
      ],
      "name": "tokenOfOwnerByIndex",
      "outputs": [
        {
          "internalType": "uint256",
          "name": "",
          "type": "uint256"
        }
      ],
      "stateMutability": "view",
      "type": "function"
    },
    {
      "inputs": [
        {
          "internalType": "uint256",
          "name": "tokenId",
          "type": "uint256"
        }
      ],
      "name": "tokenURI",
      "outputs": [
        {
          "internalType": "string",
          "name": "",
          "type": "string"
        }
      ],
      "stateMutability": "view",
      "type": "function"
    },
    {
      "inputs": [],
      "name": "totalSupply",
      "outputs": [
        {
          "internalType": "uint256",
          "name": "",
          "type": "uint256"
        }
      ],
      "stateMutability": "view",
      "type": "function"
    },
    {
      "inputs": [
        {
          "internalType": "address",
          "name": "from",
          "type": "address"
        },
        {
          "internalType": "address",
          "name": "to",
          "type": "address"
        },
        {
          "internalType": "uint256",
          "name": "tokenId",
          "type": "uint256"
        }
      ],
      "name": "transferFrom",
      "outputs": [],
      "stateMutability": "nonpayable",
      "type": "function"
    },
    {
      "inputs": [
        {
          "internalType": "address",
          "name": "newOwner",
          "type": "address"
        }
      ],
      "name": "transferOwnership",
      "outputs": [],
      "stateMutability": "nonpayable",
      "type": "function"
    },
    {
      "inputs": [
        {
          "internalType": "address",
          "name": "",
          "type": "address"
        },
        {
          "internalType": "uint256",
          "name": "",
          "type": "uint256"
        }
      ],
      "name": "userAgents",
      "outputs": [
        {
          "internalType": "uint256",
          "name": "",
          "type": "uint256"
        }
      ],
      "stateMutability": "view",
      "type": "function"
    },
    {
      "inputs": [],
      "name": "withdrawFees",
      "outputs": [],
      "stateMutability": "nonpayable",
      "type": "function"
    }
  ],
  "bytecode": "0x60806040523461039357604080519081016001600160401b038111828210176102a9576040908152601682527f496365437265616d2054726164696e67204167656e7400000000000000000000602083015280519081016001600160401b038111828210176102a9576040526008815267494345435245414d60c01b602082015281516001600160401b0381116102a9575f54600181811c91168015610389575b602082101461028b57601f8111610327575b50602092601f82116001146102c857928192935f926102bd575b50508160011b915f199060031b1c1916175f555b80516001600160401b0381116102a957600154600181811c9116801561029f575b602082101461028b57601f8111610228575b50602091601f82116001146101c8579181925f926101bd575b50508160011b915f199060031b1c1916176001555b33156101aa57600a8054336001600160a01b03198216811790925560405191906001600160a01b03167f8be0079c531659141344cd1fd0a4f28419497f9722a3daafe3b4186f6b6457e05f80a366038d7ea4c68000600c55600a600d55614f0a90816103988239f35b631e4fbdf760e01b5f525f60045260245ffd5b015190505f8061012c565b601f1982169260015f52805f20915f5b858110610210575083600195106101f8575b505050811b01600155610141565b01515f1960f88460031b161c191690555f80806101ea565b919260206001819286850151815501940192016101d8565b60015f527fb10e2d527612073b26eecdfd717e6a320cf44b4afac2b0732d9fcbe2b7fa0cf6601f830160051c81019160208410610281575b601f0160051c01905b8181106102765750610113565b5f8155600101610269565b9091508190610260565b634e487b7160e01b5f52602260045260245ffd5b90607f1690610101565b634e487b7160e01b5f52604160045260245ffd5b015190505f806100cc565b601f198216935f8052805f20915f5b86811061030f57508360019596106102f7575b505050811b015f556100e0565b01515f1960f88460031b161c191690555f80806102ea565b919260206001819286850151815501940192016102d7565b5f80527f290decd9548b62a8d60345a988386fc84ba6bc95484008f6362f93160ef3e563601f830160051c8101916020841061037f575b601f0160051c01905b81811061037457506100b2565b5f8155600101610367565b909150819061035e565b90607f16906100a0565b5f80fdfe60806040526004361015610011575f80fd5b5f3560e01c806301ffc9a71461020457806306fdde03146101ff578063081812fc146101fa578063095ea7b3146101f5578063149702ae146101f057806318160ddd146101eb57806319a6a6e9146101e657806323b872dd146101e15780632f745c59146101dc5780633d46519d146101d75780634131da0c146101d257806342842e0e146101cd578063476343ee146101c857806347a95efb146101c35780634f6ccce7146101be57806351ca9ff9146101b95780636352211e146101b457806370a08231146101af578063715018a6146101aa5780637756a47f146101a55780637be61562146101a05780638da5cb5b1461019b57806395d89b4114610196578063a22cb46514610191578063b88d4fde1461018c578063c87b56dd14610187578063d002462b14610182578063e985e9c51461017d578063f2cff57f14610178578063f2fde38b146101735763fc5d5a381461016e575f80fd5b611334565b6112ae565b611291565b611235565b6111e9565b611194565b61112e565b610ffe565b610f59565b610f31565b610e6c565b610e12565b610db7565b610d8c565b610d5c565b610d04565b610c70565b610bef565b6109ca565b610995565b61086d565b6107ef565b610740565b610729565b610653565b610562565b610530565b610429565b6103c1565b6102ea565b61021f565b6001600160e01b031981160361021b57565b5f80fd5b3461021b57602036600319011261021b5760043561023c81610209565b63ffffffff60e01b1663780e9d6360e01b8114908115610265575b506040519015158152602090f35b6380ac58cd60e01b811491508115610297575b8115610286575b505f610257565b6301ffc9a760e01b1490505f61027f565b635b5e139f60e01b81149150610278565b5f91031261021b57565b805180835260209291819084018484015e5f828201840152601f01601f1916010190565b9060206102e79281815201906102b2565b90565b3461021b575f36600319011261021b576040515f805461030981610a4a565b808452906001811690811561039d5750600114610341575b61033d8361033181850382610ab8565b604051918291826102d6565b0390f35b5f8080527f290decd9548b62a8d60345a988386fc84ba6bc95484008f6362f93160ef3e563939250905b80821061038357509091508101602001610331610321565b91926001816020925483858801015201910190929161036b565b60ff191660208086019190915291151560051b840190910191506103319050610321565b3461021b57602036600319011261021b576004356103de81611c9c565b505f526004602052602060018060a01b0360405f205416604051908152f35b600435906001600160a01b038216820361021b57565b602435906001600160a01b038216820361021b57565b3461021b57604036600319011261021b576104426103fd565b6024359061044f82611c9c565b3315158061051d575b806104df575b6104cc576104ca926104ab9181906001600160a01b0385811691167f8c5be1e5ebec7d5bd14f71427d1e84f3dd0314c0f7b2291e5b200ac8c7c3b9255f80a45f52600460205260405f2090565b80546001600160a01b0319166001600160a01b03909216919091179055565b005b63a9fbf51f60e01b5f523360045260245ffd5b5060ff610515336105008460018060a01b03165f52600560205260405f2090565b9060018060a01b03165f5260205260405f2090565b54161561045e565b506001600160a01b038116331415610458565b3461021b57602036600319011261021b576004355f52600e602052602060018060a01b0360405f205416604051908152f35b3461021b575f36600319011261021b576020600854604051908152f35b6007111561058957565b634e487b7160e01b5f52602160045260245ffd5b9060078210156105895752565b6102e790602081526101206101006106126105fc6105d487518560208801526101408701906102b2565b6105e66020890151604088019061059d565b6040880151868203601f190160608801526102b2565b6060870151858203601f190160808701526102b2565b94608081015160a085015260a081015160c085015261063a60c082015160e086019015159052565b60e08101518483015201516001600160a01b0316910152565b3461021b57602036600319011261021b5761033d6106e36106de6004355f61010060405161068081610a96565b60608152826020820152606060408201526060808201528260808201528260a08201528260c08201528260e08201520152805f5260026020526106d060018060a01b0360405f2054161515611380565b5f52601060205260405f2090565b6113cf565b604051918291826105aa565b606090600319011261021b576004356001600160a01b038116810361021b57906024356001600160a01b038116810361021b579060443590565b3461021b576104ca61073a366106ef565b9161147f565b3461021b57604036600319011261021b576107596103fd565b6024359061076681611637565b821015610799576001600160a01b03165f9081526006602090815260408083209383529281529082902054915191825290f35b63295f44f760e21b5f5260018060a01b031660045260245260445ffd5b60206040818301928281528451809452019201905f5b8181106107d95750505090565b82518452602093840193909201916001016107cc565b3461021b57602036600319011261021b576001600160a01b036108106103fd565b165f52600f60205260405f206040519081602082549182815201915f5260205f20905f5b8181106108575761033d8561084b81870382610ab8565b604051918291826107b6565b8254845260209093019260019283019201610834565b3461021b57602036600319011261021b5760043561089d61088d82611c9c565b6001600160a01b031633146115da565b6108af815f52601060205260405f2090565b6109036108f76108f76108f7600860068601956108e96108d76108d3895460ff1690565b1590565b889060ff801983541691151516179055565b01546001600160a01b031690565b6001600160a01b031690565b803b1561021b575f80916004604051809481936329c68dc160e01b83525af18015610990577f5b7fa91ee392647b777096db0d386dc7cb7a3bfbc86ae6a10e0500de3a5ad02f926109719261095f92610976575b505460ff1690565b60405190151581529081906020820190565b0390a2005b806109845f61098a93610ab8565b806102a8565b5f610957565b611618565b3461021b576104ca6109a6366106ef565b90604051926109b6602085610ab8565b5f84526109c483838361147f565b33612395565b3461021b575f36600319011261021b576109e2611cd0565b478015610a0f57600a545f91829182918291610a06906001600160a01b03166108f7565b82f11561099057005b60405162461bcd60e51b81526020600482015260136024820152724e6f206665657320746f20776974686472617760681b6044820152606490fd5b90600182811c92168015610a78575b6020831014610a6457565b634e487b7160e01b5f52602260045260245ffd5b91607f1691610a59565b634e487b7160e01b5f52604160045260245ffd5b610120810190811067ffffffffffffffff821117610ab357604052565b610a82565b90601f8019910116810190811067ffffffffffffffff821117610ab357604052565b9060405191825f825492610aed84610a4a565b8084529360018116908115610b585750600114610b14575b50610b1292500383610ab8565b565b90505f9291925260205f20905f915b818310610b3c575050906020610b12928201015f610b05565b6020919350806001915483858901015201910190918492610b23565b905060209250610b1294915060ff191682840152151560051b8201015f610b05565b979499989592610bc892610bba91610bad610ba26101009b98956101208e81815201906102b2565b9260208d019061059d565b8a820360408c01526102b2565b9088820360608a01526102b2565b608087019890985260a0860152151560c085015260e08401526001600160a01b0316910152565b3461021b57602036600319011261021b576004355f52601060205260405f20610c1781610ada565b61033d60ff60018401541692610c2f60028201610ada565b90610c3c60038201610ada565b600482015460058301549060ff60068501541692600785015494600860018060a01b039101541695604051998a998a610b7a565b3461021b57602036600319011261021b57600435600854811015610cc05760085f527ff3f7a9fe364faab93b216da50a3214154f22a0a2b415b23a84c8169e8b636ee30154604051908152602090f35b63295f44f760e21b5f525f60045260245260445ffd5b634e487b7160e01b5f52603260045260245ffd5b8054821015610cff575f5260205f2001905f90565b610cd6565b3461021b57604036600319011261021b57610d1d6103fd565b6001600160a01b03165f908152600f602052604090208054602435919082101561021b57602091610d4d91610cea565b90549060031b1c604051908152f35b3461021b57602036600319011261021b576020610d7a600435611c9c565b6040516001600160a01b039091168152f35b3461021b57602036600319011261021b576020610daf610daa6103fd565b611637565b604051908152f35b3461021b575f36600319011261021b57610dcf611cd0565b600a80546001600160a01b031981169091555f906001600160a01b03167f8be0079c531659141344cd1fd0a4f28419497f9722a3daafe3b4186f6b6457e08280a3005b3461021b575f36600319011261021b576020600d54604051908152f35b9181601f8401121561021b5782359167ffffffffffffffff831161021b576020838186019501011161021b57565b60243590600782101561021b57565b60e036600319011261021b5760043567ffffffffffffffff811161021b57610e98903690600401610e2f565b610ea0610e5d565b9160443567ffffffffffffffff811161021b57610ec1903690600401610e2f565b60643567ffffffffffffffff811161021b57610ee1903690600401610e2f565b906084359260a4359460c4359867ffffffffffffffff8a1161021b57610f0e610f169a3690600401610e2f565b999098611aa7565b604080519283526001600160a01b0391909116602083015290f35b3461021b575f36600319011261021b57600a546040516001600160a01b039091168152602090f35b3461021b575f36600319011261021b576040515f600154610f7981610a4a565b808452906001811690811561039d5750600114610fa05761033d8361033181850382610ab8565b60015f9081527fb10e2d527612073b26eecdfd717e6a320cf44b4afac2b0732d9fcbe2b7fa0cf6939250905b808210610fe457509091508101602001610331610321565b919260018160209254838588010152019101909291610fcc565b3461021b57604036600319011261021b576110176103fd565b602435801515810361021b5733156110b9576001600160a01b0382169182156110a6578161106361107492335f52600560205260405f209060018060a01b03165f5260205260405f2090565b9060ff801983541691151516179055565b604051901515815233907f17307eab39ab6107e8899845ad3d59bd9653f200f220920489ca2b5937696c3190602090a3005b82630b61174360e31b5f5260045260245ffd5b63a9fbf51f60e01b5f525f60045260245ffd5b60405190610b1261012083610ab8565b67ffffffffffffffff8111610ab357601f01601f191660200190565b929192611104826110dc565b916111126040519384610ab8565b82948184528183011161021b578281602093845f960137010152565b3461021b57608036600319011261021b576111476103fd565b61114f610413565b906044356064359267ffffffffffffffff841161021b573660238501121561021b576111886104ca9436906024816004013591016110f8565b926109c483838361147f565b3461021b57602036600319011261021b576111b0600435611c9c565b505f6040516111c0602082610ab8565b5261033d6040516111d2602082610ab8565b5f81526040519182916020835260208301906102b2565b3461021b57602036600319011261021b577f40bd824d588484917db8fa4fc894c1e0feae5a75885290ba7b97521cebf82a806020600435611228611cd0565b80600c55604051908152a1005b3461021b57604036600319011261021b57602060ff6112856112556103fd565b61125d610413565b6001600160a01b039182165f9081526005865260408082209290931681526020919091522090565b54166040519015158152f35b3461021b575f36600319011261021b576020600c54604051908152f35b3461021b57602036600319011261021b576112c76103fd565b6112cf611cd0565b6001600160a01b0316801561132157600a80546001600160a01b0319811683179091556001600160a01b03167f8be0079c531659141344cd1fd0a4f28419497f9722a3daafe3b4186f6b6457e05f80a3005b631e4fbdf760e01b5f525f60045260245ffd5b3461021b57602036600319011261021b577f564b2074ce13fa916b2c3b9d2a926cb097f4406544f7a24940694c717afbcd216020600435611373611cd0565b80600d55604051908152a1005b1561138757565b60405162461bcd60e51b81526020600482015260146024820152731059d95b9d08191bd95cc81b9bdd08195e1a5cdd60621b6044820152606490fd5b60078210156105895752565b90610b1261146e60086113e06110cc565b946113ea81610ada565b86526114066113fd600183015460ff1690565b602088016113c3565b61141260028201610ada565b604087015261142360038201610ada565b606087015260048101546080870152600581015460a087015261145661144d600683015460ff1690565b151560c0880152565b600781015460e087015201546001600160a01b031690565b6001600160a01b0316610100840152565b6001600160a01b038216929183156115c7575f838152600260205260409020546001600160a01b031690336115b7575b6001600160a01b0382169484908615801561158b575b6001600160a01b0384165f908152600360205260409020600181540190556114f9846104ab855f52600260205260405f2090565b8282897fddf252ad1be2c89b69c2b068fc378daa952ba7f163c4a11628f55a4df523b3ef5f80a4156115755761152e826124d4565b8603611565575b5050506001600160a01b031680830361154d57505050565b6364283d7b60e01b5f5260045260245260445260645ffd5b61156e9161253b565b5f83611535565b86811461152e576115868285612451565b61152e565b6115948361242f565b6001600160a01b0385165f90815260036020526040902080545f190190556114c5565b6115c28433846129cd565b6114af565b633250574960e11b5f525f60045260245ffd5b156115e157565b60405162461bcd60e51b815260206004820152600f60248201526e2737ba1030b3b2b73a1037bbb732b960891b6044820152606490fd5b6040513d5f823e3d90fd5b60405190611632602083610ab8565b5f8252565b6001600160a01b03168015611655575f52600360205260405f205490565b6322718ad960e21b5f525f60045260245ffd5b1561166f57565b60405162461bcd60e51b815260206004820152601b60248201527f496e73756666696369656e74206465706c6f796d656e742066656500000000006044820152606490fd5b156116bb57565b60405162461bcd60e51b815260206004820152600d60248201526c13985b59481c995c5d5a5c9959609a1b6044820152606490fd5b156116f757565b60405162461bcd60e51b8152602060048201526013602482015272151bdad95b881c185a5c881c995c5d5a5c9959606a1b6044820152606490fd5b1561173957565b60405162461bcd60e51b815260206004820152601260248201527113585e081859d95b9d1cc81c995858da195960721b6044820152606490fd5b634e487b7160e01b5f52601160045260245ffd5b5f1981146117955760010190565b611773565b908060209392818452848401375f828201840152601f01601f1916010190565b9894926117fb611806916102e79f9d9a9893969c9e9c61012060408e6118219d986118139b825260018060a01b0316602082015201526101208d019161179a565b9360608b019061059d565b88830360808a015261179a565b9185830360a087015261179a565b9460c083015260e082015261010081850391015261179a565b601f821161184757505050565b5f5260205f20906020601f840160051c8301931061187f575b601f0160051c01905b818110611874575050565b5f8155600101611869565b9091508190611860565b919091825167ffffffffffffffff8111610ab3576118b1816118ab8454610a4a565b8461183a565b6020601f82116001146118f05781906118e19394955f926118e5575b50508160011b915f199060031b1c19161790565b9055565b015190505f806118cd565b601f19821690611903845f5260205f2090565b915f5b81811061193d57509583600195969710611925575b505050811b019055565b01515f1960f88460031b161c191690555f808061191b565b9192602060018192868b015181550194019201611906565b9060078110156105895760ff80198354169116179055565b6008611a11610100610b1294611984815186611889565b61199e60208201516119958161057f565b60018701611955565b6119af604082015160028701611889565b6119c0606082015160038701611889565b6080810151600486015560a081015160058601556119f96119e460c0830151151590565b600687019060ff801983541691151516179055565b60e0810151600786015501516001600160a01b031690565b910180546001600160a01b0319166001600160a01b03909216919091179055565b90815491600160401b831015610ab35782611a55916001610b1295018155610cea565b90919082549060031b91821b915f19901b1916179055565b91611a9890606094611aa3939897969860018060a01b0316855260806020860152608085019161179a565b95604083019061059d565b0152565b9590949a9997929197611abe600c54341015611668565b611ac98615156116b4565b611ad48515156116f0565b335f908152600f60205260409020611af09054600d5411611732565b611b03611afe600b54611787565b600b55565b600b54996040519161224c908184019284841067ffffffffffffffff851117610ab3578f8c8f8f928c8f8f958e968e928d9c8f97611b489d8f612c89903933916117ba565b03905ff0928315610990576001600160a01b039093169a8997899491611b6e8a33611cf7565b611b766110cc565b93611b82368a8c6110f8565b8552611b9187602087016113c3565b611b9c3689886110f8565b60408601523690611bac926110f8565b6060840152608083015260a0820152600160c08201524260e08201526001600160a01b038b16610100820152611bea875f52601060205260405f2090565b90611bf49161196d565b89611c07875f52600e60205260405f2090565b80546001600160a01b0319166001600160a01b03909216919091179055335f908152600f6020526040902086611c3c91611a32565b611c473685876110f8565b923690611c53926110f8565b90611c5e9286611e33565b5060405191829133954291611c74938b86611a6d565b037fe3ee8fb05b91d276b57800663240b31d1bace3b99050566c994cf6fae94eebb191a39190565b5f818152600260205260409020546001600160a01b0316908115611cbe575090565b637e27328960e01b5f5260045260245ffd5b600a546001600160a01b03163303611ce457565b63118cdaa760e01b5f523360045260245ffd5b9060405190611d07602083610ab8565b5f82526001600160a01b03831680156115c7575f828152600260205260409020546001600160a01b0316801580159290829084611df5575b6001600160a01b0388165f90815260036020526040902060018154019055611d73886104ab885f52600260205260405f2090565b8583837fddf252ad1be2c89b69c2b068fc378daa952ba7f163c4a11628f55a4df523b3ef5f80a415611ddf57611da8856124d4565b03611dd0575b50611dbd57610b1292336122a4565b6339e3563760e11b5f525f60045260245ffd5b611dda838661253b565b611dae565b808214611da857611df08584612451565b611da8565b611dfe8661242f565b6001600160a01b0384165f90815260036020526040902080545f19019055611d3f565b805191908290602001825e015f815290565b92919091611e40846125eb565b93611e4a83612bcd565b611e53846127be565b604080517f3c73766720786d6c6e733d22687474703a2f2f7777772e77332e6f72672f323060208201527f30302f737667222077696474683d2235303022206865696768743d223530302291810191909152601f60f91b60608201527f3c726563742077696474683d2235303022206865696768743d2235303022206660618201526434b6361e9160d91b608182015291829190611ef5906086840190611e21565b6211179f60e91b81526003017f3c7465787420783d223530252220793d223530252220646f6d696e616e742d6281527f6173656c696e653d226d6964646c652220746578742d616e63686f723d226d6960208201527f64646c65222066696c6c3d2277686974652220666f6e742d73697a653d223430604082015261111f60f11b6060820152606201611f8791611e21565b6c1e17ba32bc3a1f1e17b9bb339f60991b8152600d0103601f1981018252611faf9082610ab8565b611fb8906128f2565b6040517f646174613a696d6167652f7376672b786d6c3b6261736536342c000000000000602082015293908490603a8201611ff291611e21565b03601f19810185526120049085610ab8565b61200d906127be565b90612017906125eb565b604051683d913730b6b2911d1160b91b60208201529586959194916029870161203f91611e21565b61088b60f21b81526002017f226465736372697074696f6e223a22496365437265616d2054726164696e67208152664167656e74202360c81b602082015260270161208991611e21565b61088b60f21b8152600201681134b6b0b3b2911d1160b91b81526009016120af91611e21565b61088b60f21b81526002016d2261747472696275746573223a5b60901b8152600e017f7b2274726169745f74797065223a225374726174656779222c2276616c7565228152611d1160f11b602082015260220161210b91611e21565b62089f4b60ea1b81526003017f7b2274726169745f74797065223a22546f6b656e2050616972222c2276616c7581526332911d1160e11b602082015260240161215391611e21565b62089f4b60ea1b81526003017f7b2274726169745f74797065223a22546f6b656e204944222c22646973706c6181527f795f74797065223a226e756d626572222c2276616c7565223a0000000000000060208201526039016121b491611e21565b607d60f81b8152600101615d7d60f01b815260020103601f19810182526121db9082610ab8565b6121e4906128f2565b6040517f646174613a6170706c69636174696f6e2f6a736f6e3b6261736536342c0000006020820152908190603d820161221d91611e21565b03601f19810182526102e79082610ab8565b9081602091031261021b57516102e781610209565b6001600160a01b0391821681529116602082015260408101919091526080606082018190526102e7929101906102b2565b3d1561229f573d90612286826110dc565b916122946040519384610ab8565b82523d5f602084013e565b606090565b9092833b6122b3575b50505050565b604051630a85bd0160e11b815292602092849283926122d7925f9060048601612244565b03815f6001600160a01b0387165af15f9181612364575b5061232857506122fc612275565b805191908261232157633250574960e11b5f526001600160a01b03821660045260245ffd5b6020915001fd5b6001600160e01b03191663757a42ff60e11b0161234957505f8080806122ad565b633250574960e11b5f526001600160a01b031660045260245ffd5b61238791925060203d60201161238e575b61237f8183610ab8565b81019061222f565b905f6122ee565b503d612375565b939193843b6123a6575b5050505050565b6123c76020936040519586948594630a85bd0160e11b865260048601612244565b03815f6001600160a01b0387165af15f918161240e575b506123ec57506122fc612275565b6001600160e01b03191663757a42ff60e11b0161234957505f8080808061239f565b61242891925060203d60201161238e5761237f8183610ab8565b905f6123de565b612441905f52600460205260405f2090565b80546001600160a01b0319169055565b5f916124a69161246081611637565b91808552600760205260408520549160018060a01b03168552600660205260408520918381036124a9575b5084526007602052836040812055905f5260205260405f2090565b55565b838652826020526040862054818752836020528060408820558652600760205260408620555f61248b565b600854815f52600960205260405f2055600854600160401b811015610ab35760018101600855600854811015610cff5760085f527ff3f7a9fe364faab93b216da50a3214154f22a0a2b415b23a84c8169e8b636ee30155565b5f1981019190821161179557565b9061254582611637565b5f198101929083116117955760018060a01b03165f52600660205260405f20825f526020528060405f20555f52600760205260405f2055565b90612588826110dc565b6125956040519182610ab8565b82815280926125a6601f19916110dc565b0190602036910137565b603001908160301161179557565b906002820180921161179557565b906020820180921161179557565b908151811015610cff570160200190565b908115612680575f82805b612661575080612606849261257e565b915b61261157509150565b61261d61265a9161252d565b93612646612636612630600a84066125b0565b60ff1690565b60f81b6001600160f81b03191690565b5f1a61265286856125da565b53600a900490565b9283612608565b929061266f61267791611787565b93600a900490565b809391936125f6565b9050604051612690604082610ab8565b60018152600360fc1b602082015290565b604051906126b0604083610ab8565b600482526314d413d560e21b6020830152565b604051906126d2604083610ab8565b600382526244434160e81b6020830152565b604051906126f3604083610ab8565b600682526529a724a822a960d11b6020830152565b60405190612717604083610ab8565b600682526526a0a923a4a760d11b6020830152565b6040519061273b604083610ab8565b60048252634d454d4560e01b6020830152565b6040519061275d604083610ab8565b600982526841524249545241474560b81b6020830152565b60405190612784604083610ab8565b6006825265159254d5505360d21b6020830152565b604051906127a8604083610ab8565b60078252662aa725a727aba760c91b6020830152565b6127c78161057f565b8015612870576127d68161057f565b60018114612867576127e78161057f565b6002811461285e576127f88161057f565b60038114612855576128098161057f565b6004811461284c5761281a8161057f565b60058114612843578061282e60069261057f565b1461283b576102e7612799565b6102e7612775565b506102e761274e565b506102e761272c565b506102e7612708565b506102e76126e4565b506102e76126c3565b506102e76126a1565b60405190612888606083610ab8565b604082527f6768696a6b6c6d6e6f707172737475767778797a303132333435363738392b2f6040837f4142434445464748494a4b4c4d4e4f505152535455565758595a61626364656660208201520152565b600281901b91906001600160fe1b0381160361179557565b6128fa612879565b8151156129c35761292d61292861292361291e61291786516125be565b6003900490565b6128da565b6125cc565b61257e565b91602083019181518201905b8183106129765750506003905106806001146129645760021461295a575090565b603d905f19015390565b50603d90816001198201535f19015390565b90919260046003916001603f875182828260121c16880101518453828282600c1c16880101518385015382828260061c168801015160028501531685010151838201530193019190612939565b50506102e7611623565b9091906129eb6001600160a01b0384168015159081612a3357501590565b6129f457505050565b6001600160a01b0316612a1357637e27328960e01b5f5260045260245ffd5b63177e802f60e01b5f526001600160a01b0390911660045260245260445ffd5b6001600160a01b03841680821492508215612a73575b508115612a5557501590565b5f858152600460205260409020546001600160a01b03161415919050565b9091505f52600560205260ff612a9c8660405f209060018060a01b03165f5260205260405f2090565b5416905f612a49565b60405190612ab4604083610ab8565b60078252662336333636663160c81b6020830152565b60405190612ad9604083610ab8565b60078252662331306239383160c81b6020830152565b60405190612afe604083610ab8565b600782526608d9598d0d0d0d60ca1b6020830152565b60405190612b23604083610ab8565b600782526611b31a9cb2983160c91b6020830152565b60405190612b48604083610ab8565b60078252662365633438393960c81b6020830152565b60405190612b6d604083610ab8565b6007825266119c311ab1b31b60c91b6020830152565b60405190612b92604083610ab8565b60078252661199b11c19331b60c91b6020830152565b60405190612bb7604083610ab8565b60078252660233662373238360cc1b6020830152565b612bd68161057f565b8015612c7f57612be58161057f565b60018114612c7657612bf68161057f565b60028114612c6d57612c078161057f565b60038114612c6457612c188161057f565b60048114612c5b57612c298161057f565b60058114612c525780612c3d60069261057f565b14612c4a576102e7612ba8565b6102e7612b83565b506102e7612b5e565b506102e7612b39565b506102e7612b14565b506102e7612aef565b506102e7612aca565b506102e7612aa556fe60a0604052346107255761224c8038038061001981610729565b92833981019061012081830312610725578051602082015190926001600160a01b0382169290918390036107255760408101516001600160401b038111610725578261006691830161074e565b606082015160078110156107255760808301516001600160401b038111610725578461009391850161074e565b60a08401519092906001600160401b03811161072557856100b591860161074e565b9660c08501519460e08101519661010082015160018060401b038111610725576100df920161074e565b968015610712575f80546001600160a01b03198116831782556001600160a01b0316907f8be0079c531659141344cd1fd0a4f28419497f9722a3daafe3b4186f6b6457e09080a360017f9b779b17422d0df92223018b32b4d1fa46e071723d6817e2486d003becc55f00556080528051906001600160401b0382116103655760015490600182811c92168015610708575b60208310146104475781601f84931161069a575b50602090601f8311600114610634575f92610629575b50508160011b915f199060031b1c1916176001555b60ff80196002541691161760025580519060018060401b0382116103655760035490600182811c9216801561061f575b60208310146104475781601f8493116105b1575b50602090601f831160011461054b575f92610540575b50508160011b915f199060031b1c1916176003555b83516001600160401b03811161036557600454600181811c91168015610536575b602082101461044757601f81116104d3575b50602094601f8211600114610470579481929394955f92610465575b50508160011b915f199060031b1c1916176004555b60055560065580516001600160401b03811161036557600754600181811c9116801561045b575b602082101461044757601f81116103e4575b50602091601f8211600114610384579181925f92610379575b50508160011b915f199060031b1c1916176007555b6008805461ffff1916610101179055426009555f600b819055600c55604051608081016001600160401b03811182821017610365575f9160609160405282815282602082015282604082015201525f600e555f600f555f60105560ff1960115416601155604051611aac90816107a08239608051816111c60152f35b634e487b7160e01b5f52604160045260245ffd5b015190505f806102d4565b601f1982169260075f52805f20915f5b8581106103cc575083600195106103b4575b505050811b016007556102e9565b01515f1960f88460031b161c191690555f80806103a6565b91926020600181928685015181550194019201610394565b60075f527fa66cc928b5edb82af9bd49922954155ab7b0942694bea4ce44661d9a8736c688601f830160051c8101916020841061043d575b601f0160051c01905b81811061043257506102bb565b5f8155600101610425565b909150819061041c565b634e487b7160e01b5f52602260045260245ffd5b90607f16906102a9565b015190505f8061026d565b601f1982169560045f52805f20915f5b8881106104bb575083600195969798106104a3575b505050811b01600455610282565b01515f1960f88460031b161c191690555f8080610495565b91926020600181928685015181550194019201610480565b60045f527f8a35acfbc15ff81a39ae7d344fd709f28e8600b4aa8c65c6b64bfe7fe36bd19b601f830160051c8101916020841061052c575b601f0160051c01905b8181106105215750610251565b5f8155600101610514565b909150819061050b565b90607f169061023f565b015190505f80610209565b60035f9081528281209350601f198516905b8181106105995750908460019594939210610581575b505050811b0160035561021e565b01515f1960f88460031b161c191690555f8080610573565b9293602060018192878601518155019501930161055d565b60035f529091507fc2575a0e9e593c00f959f8c92f12db2869c3395a3b0502d05e2516446f71f85b601f840160051c81019160208510610615575b90601f859493920160051c01905b81811061060757506101f3565b5f81558493506001016105fa565b90915081906105ec565b91607f16916101df565b015190505f8061019a565b60015f9081528281209350601f198516905b818110610682575090846001959493921061066a575b505050811b016001556101af565b01515f1960f88460031b161c191690555f808061065c565b92936020600181928786015181550195019301610646565b60015f529091507fb10e2d527612073b26eecdfd717e6a320cf44b4afac2b0732d9fcbe2b7fa0cf6601f840160051c810191602085106106fe575b90601f859493920160051c01905b8181106106f05750610184565b5f81558493506001016106e3565b90915081906106d5565b91607f1691610170565b631e4fbdf760e01b5f525f60045260245ffd5b5f80fd5b6040519190601f01601f191682016001600160401b0381118382101761036557604052565b81601f82011215610725578051906001600160401b0382116103655761077d601f8301601f1916602001610729565b928284526020838301011161072557815f9260208093018386015e830101529056fe60806040526004361015610022575b3615610018575f80fd5b6100206119c5565b005b5f3560e01c8063051d5f5d1461121f57806306fdde031461120457806312065fe0146111e957806317d70f7c146111af5780631e6c598e14611112578063200d2ed2146110ea57806322f3e2d4146110c857806329c68dc1146110355780632e1a7d4d14610f4b57806338591db814610f235780634051ddac14610e775780634c13c66a14610e5a57806363a599a414610df7578063643590f914610d3b578063679d86a714610cfa578063715018a614610ca357806374452ec314610c865780637fec8d3814610be157806382ccd33014610bba57806384f523ad14610b9d5780638814e0e714610b185780638da5cb5b14610af1578063a3031b7714610ad4578063a5b1297914610a0a578063c050d2b5146109dc578063c580b42a14610406578063ce99c0ce1461037a578063cf09e0d01461035d578063d0e30db01461034a578063d5101251146102dc578063d534d636146102a1578063e275c99714610284578063e2990cd014610267578063ee16c160146102345763f2fde38b0361000e5734610230576020366003190112610230576004356001600160a01b03811690819003610230576101d56119f8565b801561021d575f80546001600160a01b03198116831782556001600160a01b0316907f8be0079c531659141344cd1fd0a4f28419497f9722a3daafe3b4186f6b6457e09080a3005b631e4fbdf760e01b5f525f60045260245ffd5b5f80fd5b34610230575f3660031901126102305761026361024f61150a565b60405191829160208352602083019061163d565b0390f35b34610230575f366003190112610230576020600c54604051908152f35b34610230575f366003190112610230576020600b54604051908152f35b34610230575f366003190112610230576080600e54600f5460105460ff60115416916040519384526020840152604083015215156060820152f35b34610230576020366003190112610230576004356001600160a01b038116908190036102305760207f02dc911aaa0e4aefb4e1898cc626902c4d63f9304bb8cc1fd10c1bf23a1a7d6a9161032e6119f8565b805f526012825260405f2060ff198154169055604051908152a1005b5f366003190112610230576100206119c5565b34610230575f366003190112610230576020600954604051908152f35b34610230575f36600319011261023057600d54610396816117d2565b906103a46040519283611431565b80825260208201600d5f527fd7b6990105719101dabeb77144f2a3385c8033acd3af97e9423a695e81ad1eb55f915b8383106103e8576040518061026387826116b8565b600760206001926103f88561180a565b8152019201920191906103d3565b34610230576080366003190112610230576004356003811015610230576044359060243560643567ffffffffffffffff81116102305761044a903690600401611393565b9092335f52601260205260ff60405f20541680156109c9575b156109845760ff600854161561094c5761047b611a1e565b60028114801590610944575b156108ff57600d54936040519161049d83611415565b858352602083016104ae82826117fe565b604084019386855260608101948986526080820142815267ffffffffffffffff88116108c457601f19601f89011696604051926104ee60208a0185611431565b898452368a89011161023057898860208601375f60208b8601015260a0850193845260c085019560018752680100000000000000008d10156108c45760018d01600d5561053a8d611661565b9690966108ec5751865560018601905160038110156108d85760ff8019835416911617905551600285015551600384015551600483015560058201905180519067ffffffffffffffff82116108c45761059383546113c1565b601f811161087f575b50602090601f83116001146108185791806105d19260069695945f9261080d575b50508160011b915f199060031b1c19161790565b90555b019051151560ff8019835416911617905580155f146107195760ff601154166106dc5760016060604051610607816113f9565b898152876020820152426040820152015286600e5584600f5542601055600160ff1960115416176011555b600b54925f1984146106c8575f60c0867f1da48c93541ee17d684bfe4597ec3643205492b2027b2bba6857886aaa9f25d197829660209c8c9b60016106859b01600b5542600a556040519a8b809a611691565b8e890152604088015242606088015260a060808801528160a088015283870137840101528101030190a260015f80516020611a5783398151915255604051908152f35b634e487b7160e01b5f52601160045260245ffd5b60405162461bcd60e51b81526020600482015260156024820152742837b9b4ba34b7b71030b63932b0b23c9037b832b760591b6044820152606490fd5b600181036106325760115460ff8116156107d157600e548015801561074b575b505060ff19166011555f600f55610632565b818a03905f83128b83128116908c8413901516176106c857600f54828102925f8112600160ff1b8314166106c857830514838c1417156106c8576107bd57600160ff1b81145f198314166106c857055f81136107a8575b80610739565b6107b490600c546117c5565b600c55886107a2565b634e487b7160e01b5f52601260045260245ffd5b60405162461bcd60e51b81526020600482015260146024820152734e6f20706f736974696f6e20746f20636c6f736560601b6044820152606490fd5b015190508e806105bd565b90601f19831691845f52815f20925f5b81811061086757509160019391856006989796941061084f575b505050811b0190556105d4565b01515f1960f88460031b161c191690558d8080610842565b92936020600181928786015181550195019301610828565b835f5260205f20601f840160051c810191602085106108ba575b601f0160051c01905b8181106108af575061059c565b5f81556001016108a2565b9091508190610899565b634e487b7160e01b5f52604160045260245ffd5b634e487b7160e01b5f52602160045260245ffd5b634e487b7160e01b5f525f60045260245ffd5b60405162461bcd60e51b815260206004820152601960248201527f484f4c442073686f756c642068617665203020616d6f756e74000000000000006044820152606490fd5b508215610487565b60405162461bcd60e51b815260206004820152601060248201526f4167656e74206e6f742061637469766560801b6044820152606490fd5b60405162461bcd60e51b815260206004820152601760248201527f4e6f7420617574686f72697a6564206578656375746f720000000000000000006044820152606490fd5b505f546001600160a01b03163314610463565b34610230576040366003190112610230576102636109fe60243560043561186f565b604051918291826116b8565b34610230575f366003190112610230576040515f600754610a2a816113c1565b8084529060018116908115610ab05750600114610a52575b6102638361024f81850382611431565b60075f9081527fa66cc928b5edb82af9bd49922954155ab7b0942694bea4ce44661d9a8736c688939250905b808210610a965750909150810160200161024f610a42565b919260018160209254838588010152019101909291610a7e565b60ff191660208086019190915291151560051b8401909101915061024f9050610a42565b34610230575f366003190112610230576020600d54604051908152f35b34610230575f366003190112610230575f546040516001600160a01b039091168152602090f35b34610230575f366003190112610230575f6060604051610b37816113f9565b82815282602082015282604082015201526080604051610b56816113f9565b600e5490818152600f54602082019081526010549060408301918252606060ff60115416930192151583526040519384525160208401525160408301525115156060820152f35b34610230575f366003190112610230576020600554604051908152f35b34610230575f36600319011261023057602060ff60025416610bdf60405180926116ab565bf35b34610230575f366003190112610230576040515f600454610c01816113c1565b8084529060018116908115610ab05750600114610c28576102638361024f81850382611431565b60045f9081527f8a35acfbc15ff81a39ae7d344fd709f28e8600b4aa8c65c6b64bfe7fe36bd19b939250905b808210610c6c5750909150810160200161024f610a42565b919260018160209254838588010152019101909291610c54565b34610230575f366003190112610230576020600a54604051908152f35b34610230575f36600319011261023057610cbb6119f8565b5f80546001600160a01b0319811682556001600160a01b03167f8be0079c531659141344cd1fd0a4f28419497f9722a3daafe3b4186f6b6457e08280a3005b34610230576020366003190112610230576004356001600160a01b03811690819003610230575f526012602052602060ff60405f2054166040519015158152f35b34610230576020366003190112610230576004356001600160a01b0381169081900361023057610d696119f8565b8015610db2576020817f52762435f58790076157ea2a4914a5a4d0aa0eb421588891377692f7fd3bc082925f526012825260405f20600160ff19825416179055604051908152a1005b60405162461bcd60e51b815260206004820152601860248201527f496e76616c6964206578656375746f72206164647265737300000000000000006044820152606490fd5b34610230575f36600319011261023057610e0f6119f8565b6008805461ffff1916610300178082556040517fafa725e7f44cadb687a7043853fa1a7e7b8f0da74ce87ec546e9420f04da8c1e92602092610e57918391901c60ff1661169e565ba1005b34610230575f366003190112610230576020600654604051908152f35b34610230575f36600319011261023057610ed460ff60025416600854600b54600c54600a549060ff6011541692610f08610eec610eb2611453565b97610ebb61150a565b610edf6040519b8c9b6101208d526101208d019061163d565b9260208c01906116ab565b89820360408b015261163d565b9560ff81161515606089015260ff608089019160081c1661169e565b60a086015260c085015260e084015215156101008301520390f35b34610230576020366003190112610230576020610f41600435611773565b6040519015158152f35b3461023057602036600319011261023057600435610f676119f8565b610f6f611a1e565b478111610ff9575f8080808460018060a01b03825416828215610ff0575bf115610fe5575f54604080516001600160a01b03909216825260208201929092527feaff4b37086828766ad3268786972c0cd24259d4c87a80f9d3963a3c3d999b0d9190a160015f80516020611a5783398151915255005b6040513d5f823e3d90fd5b506108fc610f8d565b60405162461bcd60e51b8152602060048201526014602482015273496e73756666696369656e742062616c616e636560601b6044820152606490fd5b34610230575f3660031901126102305761104d6119f8565b60085460ff8082161516809160ff1916176008555f146110c15760015b60058110156108d85761ff006008549160081b169061ff001916176008557fafa725e7f44cadb687a7043853fa1a7e7b8f0da74ce87ec546e9420f04da8c1e602060ff60085460081c16610e57604051809261169e565b600261106a565b34610230575f36600319011261023057602060ff600854166040519015158152f35b34610230575f36600319011261023057602060ff60085460081c16610bdf604051809261169e565b3461023057602036600319011261023057600435600d548110156102305761113990611661565b50805460ff600183015416916111a3600282015491600381015460048201549060ff60066111696005860161159f565b940154169461118360405198899889526020890190611691565b60408701526060860152608085015260e060a085015260e084019061163d565b90151560c08301520390f35b34610230575f3660031901126102305760206040517f00000000000000000000000000000000000000000000000000000000000000008152f35b34610230575f36600319011261023057602047604051908152f35b34610230575f3660031901126102305761026361024f611453565b346102305760203660031901126102305760043567ffffffffffffffff811161023057611250903690600401611393565b6112586119f8565b67ffffffffffffffff81116108c4576112726007546113c1565b601f8111611330575b505f601f82116001146112b85781906112a8935f926112ad5750508160011b915f199060031b1c19161790565b600755005b0135905083806105bd565b601f198216927fa66cc928b5edb82af9bd49922954155ab7b0942694bea4ce44661d9a8736c688915f5b858110611318575083600195106112ff575b505050811b01600755005b01355f19600384901b60f8161c191690558280806112f4565b909260206001819286860135815501940191016112e2565b60075f527fa66cc928b5edb82af9bd49922954155ab7b0942694bea4ce44661d9a8736c688601f830160051c81019160208410611389575b601f0160051c01905b81811061137e575061127b565b5f8155600101611371565b9091508190611368565b9181601f840112156102305782359167ffffffffffffffff8311610230576020838186019501011161023057565b90600182811c921680156113ef575b60208310146113db57565b634e487b7160e01b5f52602260045260245ffd5b91607f16916113d0565b6080810190811067ffffffffffffffff8211176108c457604052565b60e0810190811067ffffffffffffffff8211176108c457604052565b90601f8019910116810190811067ffffffffffffffff8211176108c457604052565b604051905f8260015491611466836113c1565b80835292600181169081156114eb575060011461148c575b61148a92500383611431565b565b5060015f90815290917fb10e2d527612073b26eecdfd717e6a320cf44b4afac2b0732d9fcbe2b7fa0cf65b8183106114cf57505090602061148a9282010161147e565b60209193508060019154838589010152019101909184926114b7565b6020925061148a94915060ff191682840152151560051b82010161147e565b604051905f826003549161151d836113c1565b80835292600181169081156114eb57506001146115405761148a92500383611431565b5060035f90815290917fc2575a0e9e593c00f959f8c92f12db2869c3395a3b0502d05e2516446f71f85b5b81831061158357505090602061148a9282010161147e565b602091935080600191548385890101520191019091849261156b565b9060405191825f8254926115b2846113c1565b808452936001811690811561161b57506001146115d7575b5061148a92500383611431565b90505f9291925260205f20905f915b8183106115ff57505090602061148a928201015f6115ca565b60209193508060019154838589010152019101909184926115e6565b90506020925061148a94915060ff191682840152151560051b8201015f6115ca565b805180835260209291819084018484015e5f828201840152601f01601f1916010190565b600d5481101561167d57600d5f52600760205f20910201905f90565b634e487b7160e01b5f52603260045260245ffd5b9060038210156108d85752565b9060058210156108d85752565b9060078210156108d85752565b602081016020825282518091526040820191602060408360051b8301019401925f915b8383106116ea57505050505090565b9091929394602080600192603f19858203018652885190815181526117158383015184830190611691565b60408201516040820152606082015160608201526080820151608082015260c08061174f60a085015160e060a086015260e085019061163d565b9301511515910152970193019301919392906116db565b919082039182116106c857565b60ff601154161580156117bb575b6117b657611792600e549182611766565b906064820291808304606414901517156106c85780156107bd576006549104101590565b505f90565b50600e5415611781565b919082018092116106c857565b67ffffffffffffffff81116108c45760051b60200190565b805182101561167d5760209160051b010190565b60038210156108d85752565b9060405161181781611415565b60c060ff600683958054855261183683600183015416602087016117fe565b6002810154604086015260038101546060860152600481015460808601526118606005820161159f565b60a08601520154161515910152565b9061187c606091836117c5565b90600d548083116119bd575b83101561195757508161189a91611766565b6118a3816117d2565b916118b16040519384611431565b818352601f196118c0836117d2565b015f5b8181106119155750505f5b8281106118db5750505090565b806118f96118f36118ee600194866117c5565b611661565b5061180a565b61190382876117ea565b5261190e81866117ea565b50016118ce565b60209060405161192481611415565b5f81525f838201525f60408201525f60608201525f6080820152606060a08201525f60c0820152828288010152016118c3565b91505060405190611969602083611431565b5f82525f90815b82811061197d5750505090565b60209060405161198c81611415565b5f81525f838201525f60408201525f848201525f60808201528360a08201525f60c082015282828701015201611970565b915081611888565b604080513381523460208201527f543ba50a5eec5e6178218e364b1d0f396157b3c8fa278522c2cb7fd99407d4749190a1565b5f546001600160a01b03163303611a0b57565b63118cdaa760e01b5f523360045260245ffd5b60025f80516020611a578339815191525414611a475760025f80516020611a5783398151915255565b633ee5aeb560e01b5f5260045ffdfe9b779b17422d0df92223018b32b4d1fa46e071723d6817e2486d003becc55f00a264697066735822122047ed4f403fc8ca261e496839695d0ce0600a7d13f868cfb184876be58947b06364736f6c634300081a0033a2646970667358221220735a71329ec1630940ce459449206f79820b86d61c9fc47a6de91a13eb47498864736f6c634300081a0033",
  "linkReferences": {},
  "deployedLinkReferences": {}
}